:020000040800F2
:10000000FFFF0120EDAE0008F1040008F304000832
:10001000F5040008F7040008F904000800000000D7
:10002000000000000000000000000000FB040008C9
:10003000FD04000800000000FF040008550400084B
:1000400031AF000831AF000831AF000831AF000810
:1000500031AF000831AF0008D104000831AF00080B
:1000600031AF000831AF000831AF000831AF0008F0
:1000700031AF000831AF000831AF000831AF0008E0
:1000800031AF000831AF000831AF000831AF0008D0
:1000900031AF000831AF000831AF000831AF0008C0
:1000A00031AF000831AF000831AF000831AF0008B0
:1000B00031AF000831AF000831AF000831AF0008A0
:1000C00031AF000831AF000831AF000831AF000890
:1000D00031AF000831AF000831AF000831AF000880
:1000E00031AF000831AF0008590E000831AF0008E9
:1000F00031AF000831AF000831AF000831AF000860
:1001000031AF000831AF000831AF000831AF00084F
:1001100031AF000831AF000831AF000831AF00083F
:1001200031AF000831AF000831AF000831AF00082F
:1001300031AF000831AF000831AF000831AF00081F
:1001400031AF000831AF000831AF0008610E000880
:1001500031AF000831AF000831AF000831AF0008FF
:1001600031AF000831AF000831AF000831AF0008EF
:1001700031AF000831AF000831AF000831AF0008DF
:0801800031AF000831AF0008A7
:1001C000A3F5803A704700BF174B002B08BF134BB5
:1001D0009D46FFF7F5FF00218B460F461348144A52
:1001E000121A09F0BDFD0E4B002B00D098470D4BA5
:1001F000002B00D098470020002104000D000D487E
:10020000002802D00C4809F09DFE09F0FBFD2000FB
:1002100029000AF06BFD09F003FC00BF0000080094
:10022000000000000000000000000000A006002008
:10023000E0920020459F000885A90008F0B5012440
:10024000B1FBF4F3934201D214B9F0BD5443F7E784
:10025000B1FBF4F50668EBB2092DCCBF3733303370
:10026000771CDBB204FB1511076094FBF2F43370CA
:10027000EAE773B50D46019006462B7823B901983D
:100280000370801B02B070BD252B49D16B78692BA0
:100290000BD01BD8632B2BD005D8252B3BD0582B4C
:1002A00036D00235E9E7642BFBD1144654F8041B21
:1002B000002905DA019B5A1C01922D2249421A702D
:1002C0000A2201A8FFF7BAFF2246EAE7752B1AD0E7
:1002D000782B1DD0732BE4D152F8043B0199013BDC
:1002E000002013F8014F54B90028DAD00191D8E763
:1002F000019B52F8041B1970581C0190D1E701F8BA
:10030000014B0120EDE714460A2254F8041BD8E7FC
:1003100014461022F9E70199481C01900B70C0E7C0
:100320000199481C013501900B70A6E770B5034692
:1003300000201A7802B970BD252A03F1010426D1E4
:100340005B78692B12D007D8632B0DD0642B0DD0AE
:10035000582B1AD0013016E0732B0AD0722BF9D922
:10036000752B03D0782BF4E70431F3E70B3004311D
:1003700009E051F8042B13461D4613F8016B002EBB
:10038000FAD1801A2844631CD3E70830EFE7013024
:100390001C46F8E70EB403B503AA52F8041B0192F9
:1003A000FFF767FF02B05DF804EB03B070470EB4CF
:1003B000F0B582B000AF07F11C04054654F8046B99
:1003C0007C6021463046FFF7B1FFC31D23F00703D1
:1003D000ADEB030D224631466846FFF74AFF6946FA
:1003E0000246B5F90E000BF029FC0837BD46BDE802
:1003F000F04003B070470FB4B0B582B000AF07F162
:10040000180454F8045B7C6021462846FFF78EFFF1
:10041000073020F00700ADEB000D22462946684664
:10042000FFF727FF6946024601200BF007FC08375B
:10043000BD46BDE8B04004B0704782B0044B0190A7
:10044000019A1A601A68002AFCD102B0704700BFF6
:10045000A0060020044B1A6812B11A68013A1A600B
:100460005A6801325A607047A006002030B5012159
:1004700087B0022006F04CFA01214FF4804006F0CC
:1004800077FA01244FF44073002502A90E48ADF815
:100490000C308DF80F50029405F00AFB29462046D7
:1004A00007F080FB4FF4406304A8ADF814300494C7
:1004B0008DF8164004F010FE044B019301A802F0E1
:1004C0002BFA07B030BD00BF000402400600010156
:1004D00008B5012004F054FE30B1044B012018721D
:1004E000BDE8084004F05ABE08BD00BFA0060020C9
:1004F0007047FEE7FEE7FEE7FEE77047704770478C
:10050000364AD2F8883043F47003C2F88830344B4E
:100510001A68002142F001021A6099601A6822F0FC
:10052000847222F480321A602E4A5A601A6882B0AD
:1005300022F480221A60D960009101911A6842F475
:1005400080321A601A6802F400320192009A013275
:100550000092019A1AB9009AB2F5A06FF2D11B6805
:1005600013F4003318BF01230193019B012B2ED1FB
:100570001B4B1D491A6C42F080521A640A6842F4FF
:1005800040420A609A689A609A6842F400429A600F
:100590009A6842F4A0529A60144A5A601A6842F06B
:1005A00080721A601A689201FCD5114A40F2056106
:1005B00011609A6822F003029A609A6842F002027F
:1005C0009A60074A936803F00C03082BFAD1034B97
:1005D0004FF000629A6002B0704700BF00ED00E08B
:1005E00000380240103000240070004008544007DA
:1005F000003C0240154B9A6802F00C02042A20D0FD
:10060000082A20D159685A685B684902C3F38813E5
:100610004CBF0F490F4902F03F02B1FBF2F25343C6
:100620000A4A5268C2F3014201325200B3FBF2F3AC
:10063000064A09499268C2F303128A5CD3400B61EF
:100640007047034BF4E7034BF2E700BF003802406A
:1006500000127A000024F4000000002013B50A4CB8
:100660000A4B009320460A4B0A4A012101F06EFE14
:1006700000200123C4F8F405C4F8F805C4F8FC050B
:1006800084F8003602B010BDAC060020180100202E
:1006900060000020F8000020044B93F8003613B1EE
:1006A000034B187870470120704700BFAC0600204C
:1006B00014010020114BD3F8FC25E2B1D3F8F82542
:1006C0007F2A84BF0022C3F8F825D3F8F8251A44FE
:1006D00092F801260270D3F8F82599180132C3F870
:1006E000F825D3F8FC250020013A81F80106C3F86B
:1006F000FC2503207047027004207047AC060020E0
:100700001FB58DF807009DF807308DF80F300121D7
:100710000DF10F0001F0F2FC002005B05DF804FBC4
:1007200010B5441E14F8010F00B910BDFFF7E8FF23
:10073000F8E70E4BD3F8FC257F2A10B513D8D3F871
:10074000F4157F2984BF0021C3F8F415D3F8F415FC
:100750005C180132013184F80106C3F8F415C3F8BE
:10076000FC25002010BD0220FCE700BFAC060020E5
:10077000F8B504460E4615464FF40031204605F004
:10078000BAFE0028F8D10121204605F0B4FD0F4F34
:100790003946204605F09BFE0028F9D02A4631460E
:1007A000204605F0C0FD3DB9094D2946204605F01B
:1007B0008EFE0028F9D0F8BD012DFCD1054D29464B
:1007C000204605F084FE0028F9D0F4E7010003007C
:1007D000820007000200030038B5044605F027FE3A
:1007E000034D2946204605F072FE0028F9D038BD99
:1007F0008400070038B50121044605F09CFD064D34
:100800002946204605F063FE0028F9D02046BDE8C1
:10081000384005F00EBE00BF4000030038B500218F
:10082000044605F088FD0121204605F070FD064DC7
:100830002946204605F04BFE0028F9D02046BDE8A9
:10084000384005F0F6BD00BF40000300012105F06F
:100850005EBD70B50446164600221D46FFF788FFB0
:1008600031462046FFF7B8FF20462946FFF7B4FF80
:100870002046BDE87040FFF7E9BFF8B505461746CA
:1008800000221C46BDF81860FFF772FF3946284663
:10089000FFF7A2FF2644B44204D12846BDE8F84041
:1008A000FFF7D4BF14F8011B2846FFF795FFF2E7C6
:1008B00010B5012186B04FF4001006F04DF8174C2A
:1008C0000121022006F024F8154BC022694620467B
:1008D000CDE9002305F0ECF820460422062105F0BE
:1008E00065F904222046072105F060F90D490E4BF9
:1008F000A4F5D834CDE902134FF08063049302A924
:100900004FF480432046ADF8143005F05DFC012122
:10091000204605F0CFFC06B010BD00BF0004024029
:1009200002030101A08601000000FFBF10B52E4C9C
:1009300040230922AE212046FFF78BFF41F2883089
:10094000FFF77BFD03230922AE212046FFF781FF3D
:1009500041F28830FFF771FD07230C22AE212046BB
:10096000FFF777FF41F28830FFF767FD20230D2264
:10097000AE212046FFF76DFF41F28830FFF75DFDA5
:100980007F231022AE212046FFF763FF41F288301B
:10099000FFF753FD07230A22AE212046FFF759FF38
:1009A00041F28830FFF749FD00230422AE212046A2
:1009B000FFF74FFF41F28830FFF73FFD002305228C
:1009C000AE212046FFF745FF41F28830FFF735FDA5
:1009D000204600230622AE21FFF73BFFBDE8104072
:1009E00041F28830FFF729BD005400402DE9F0475F
:1009F000DFF898800022AE214046FFF7B9FE0721BC
:100A00004046FFF7E9FE4046FFF720FF0122AE21F6
:100A10004046FFF7ADFE4046FFF7ECFE0546404678
:100A2000FFF7E8FE81464046FFF7E4FE8246404677
:100A3000FFF7E0FE04464046FFF7DCFE0646404670
:100A4000FFF7ECFE07464046FFF700FF4FEA092993
:100A50002B0403F47F031FFA89F943EA09035FFAC1
:100A60008AFA094A43EA0A03C3F311031360360200
:100A7000230403F47F03B6B23343FFB23B43C3F313
:100A800011035360BDE8F087300D00200054004092
:100A900008B5FFF70DFFBDE80840FFF747BFFFF7B8
:100AA000A5BF2DE9F041D1F80080054640460C462F
:100AB00008F00EFC0CA3D3E9002308F073FC0646F3
:100AC00028460F4608F004FC02460B4630463946DD
:100AD00008F0B2FA08F016FF2060A0EB0800BDE8AD
:100AE000F08100BFAFF3008014AE47E17A14EE3F0F
:100AF0000F4A9168D36830B502EB81040131256952
:100B000020610F2491FBF4F4C4EB0414091B9160E1
:100B1000D16C0E29A3EB0503D8BF01310344D8BF24
:100B2000D164D360D26C93FBF2F3181A30BD00BFCE
:100B3000300D0020F8B54D680D600C4608F0C8FB7C
:100B40000DA3D3E9002308F02DFC064628460F46E6
:100B500008F0BEFB0AA3D3E9002308F023FC0246F9
:100B60000B463046394608F067FA08F0CBFE606065
:100B70002844F8BDAFF3008048457C5EEF63CF3F6B
:100B80005CDDC150084EE03F2DE9F84FDFF83481BD
:100B9000474DD8F800302A6D9B1A464A934242D9F5
:100BA000D5E915324FF6E85BA3EB020ADA453CDDE6
:100BB000414C94F80090B9F1FF0F36D0E86D08F081
:100BC00077FB39A3D3E9002308F0ECFB41EC100BD1
:100BD0000AF0B2F99AFBFBF057EC106B08F078FBC7
:100BE00032463B4608F0DEFB344B002206460F46F9
:100BF00008F04AFE08B1314F0026484608F068FB6D
:100C00003B46324608F018FA08F0A4FEC3B223703F
:100C10002B480C22AE21FFF71CFEE86D441CD8F8CF
:100C20000030EC652B65BDE8F88FA2EB030A4FF6A8
:100C3000E85BDA4534DDDFF8809099F80040002C5D
:100C4000EDD0E86D08F034FB17A3D3E9002308F0DA
:100C5000A9FB41EC100B0AF06FF99AFBFBF057EC83
:100C6000106B08F035FB32463B4608F09BFB134BFC
:100C7000002206460F4608F007FE08B10F4F002677
:100C8000204608F025FB3B46324608F0D3F908F031
:100C900061FEC3B2012B38BF012389F80030B7E7EA
:100CA0000024BCE7AFF300802575029A081BD4BF6F
:100CB000300D00203F420F00140000200000F03FE4
:100CC00000540040A4060020B0F5FA6F30B5324B56
:100CD0000AD90022C3E9192283F86020DA6683F872
:100CE00070205A67002048E093F86020012A0BD05A
:100CF000022A43D032B9632804D9012183F8601055
:100D000083F870205866EDE75A6E824204D2234A77
:100D100058671268DA66F5E7D3E91A219966891AE5
:100D20001CBF1F4AB2FBF1F193F878201D4C03EB76
:100D30008200C1670021084654F8045B01300A288C
:100D40002944F9D10132D2B2B2FBF0F400FB1422F3
:100D500083F8782093F8A820C3F8A410092A9CBF30
:100D6000013283F8A82093F8A820B1FBF2F1022207
:100D7000C3F8AC1083F86020012030BD5A6E824267
:100D800082BF93F87020013283F8702063289CBFE3
:100D9000002283F86020B5E7300D0020A406002073
:100DA00000879303AC0D002013B5204C01210846A9
:100DB00005F0AEFD40F202334FF4C05269462046C2
:100DC000CDE9002304F074FE20460A220B2104F032
:100DD000EDFE0A2220460C2104F0E8FE144B4FF4ED
:100DE0000071CDE900132046694604F061FE4FF41E
:100DF0008063009303238DF80530694640F20113A8
:100E00002046ADF8063004F053FE0A221146204673
:100E100004F0CCFE01214FF4804005F0A9FD012132
:100E2000802005F081FD02B010BD00BF000002402F
:100E30000003010007B54FF4C06001F063FD044BEF
:100E4000019301A801F068FD03B05DF804FB00BF49
:100E500043010301704770474FF4802004F09EB9AE
:100E6000014800F0C3BD00BFAC06002037B5002329
:100E7000114C019305460320FFF7ECFFEB68013CA2
:100E80001A69019216D0019A002AF4DA019A42F006
:100E900001020192019A1A61074A19690191013A06
:100EA00002D00199C907F8D4032003B0BDE830404F
:100EB000FFF7D0BF03B030BD410D030010B514469D
:100EC000C2783AB900EB84000333D0F8D0009B100D
:100ED000934201D1002010BD51F82240046001323C
:100EE000F6E710B50332D0F8D000921000239342F9
:100EF00002D101EB830010BD046841F823400133A7
:100F0000F5E7012370B5012943804FF0400383804A
:100F100032D14FF4816303804FF4A073C380022366
:100F20000372C1724FF0A04303F50062457802617D
:100F3000C36003F5106200F1140400218D4227D82C
:100F400003F58062426103F58862C0F8CC20024656
:100F500003F5A06412F88C5B00218D4220D803F5C4
:100F6000805100F1CC04002295421ED803F5606345
:100F7000C0F80C31002070BD41B940F20C63038011
:100F80004FF4A063C380C1720B4BCDE70023CBE7C6
:100F900044F8042F02F50076E66301312032CDE7F4
:100FA00042F8044F01312034D7E744F8041F0132DE
:100FB00001F58051D8E700BF0000044038B5027A3F
:100FC000C368012A04464FF0000522D19D6B417A87
:100FD0006FF3104509B9C5F3005262F314559D63D0
:100FE000DA6822F4940222F04002DA602046FFF729
:100FF0003DFFE378012B23D1E3682A229A60E16860
:101000008B6823F03E0242F02A0262F307038B60F2
:1010100016E0DA6842F04002DA60FFF727FF637AF1
:10102000003B18BF01231B0143F02D0363F3174559
:10103000E36814209D63FFF70EFFE378012BDED0F9
:10104000002038BDC268936843F00103936000201C
:101050007047C268936823F00103936000207047D3
:1010600007B500230193019B43F020030193019BEB
:1010700061F38A130193C268019B1361074B1169E5
:101080000191013B02D001998906F8D40320FFF7B2
:10109000E1FE002003B05DF804FB00BF410D03003A
:1010A00007B500230193019B43F010030193C2682D
:1010B000019B1361074B11690191013B02D001991A
:1010C000C906F8D40320FFF7C5FE002003B05DF881
:1010D00004FB00BF410D0300C06808B5C368C3F33B
:1010E000076222F06002012962F31F6307D143F017
:1010F0000053C3603220FFF7AEFE002008BD002978
:10110000F7D143F08043F4E7C368586900F0010069
:101110007047C3685869C04300F001007047C36856
:10112000586900F001007047C36858699B6918400E
:101130007047C368586870470269136861F3010318
:1011400013607047024610B5D3686FF080410020ED
:101150004FF0FF34986159615C60596106499961AB
:10116000D178064AB1FA81F1490942EA0112996936
:101170000A439A6110BD00BF0008008008383C0097
:10118000F8B5D0F80C31026900211960136861F3D9
:10119000CC231360C37A012B044612D10321FFF73D
:1011A000CBFFC36880225A6202F500129A622B4A72
:1011B000C3F804212A4AC3F808214FF4A072C3F8E7
:1011C0000C2110212046FFF74BFF2046FFF768FF58
:1011D000226900234FF0FF31136153619161D361A4
:1011E000607804F114051E46FF27984214D80023A6
:1011F00004F150051E46FF2798421ED8136943F498
:1012000080731361E378012B04BF164B13632046F0
:10121000FFF798FF0020F8BD55F8041FD1F800C073
:10122000BCF1000FACBF4FF0000C4FF0904CC1F878
:1012300000C001330E618F60D7E755F8041FD1F865
:1012400000C0BCF1000FACBF4FF0000C4FF0904C51
:10125000C1F800C001330E618F60CDE7A0008000AF
:10126000200120000301810003699868C0F3410058
:1012700002281DBF20F00200C0F10300C0B201200F
:101280007047036981699A680868C2F34102022ABB
:101290000CBF0322002262F30A0008605A6842F47D
:1012A00080725A60002070470B7870B501224D782B
:1012B0009A4000EB8303012D0CBF9D695D6D2E6884
:1012C0004FF0000492B20CBF62F30F0462F31F44AC
:1012D000330414D48B68CA78C3F30A0343F08053F1
:1012E00002F0030243F4004343EA8243CA8802F057
:1012F0000F0243EA8253054A324013432B600369CD
:10130000DA691443DC61002070BD00BF007833EC63
:1013100030B50B78497801229A4000EB830301290C
:1013200004460CBF9B695B6D4FF0000592B20CBF89
:1013300062F30F0562F31F45002022691860D3692C
:1013400023EA0503D36130BD2DE9F04191F801E0B6
:101350000A784B6991F803C0BEF1010F51D100EB3F
:101360008204A5692C682E6906F060465BB946F4D4
:1013700000262E61C678012E01D10E696E61BCF186
:10138000010F19D128E08F6807EB030808F1FF3837
:10139000B8FBF7F8384F07EAC847C3F3120847EA23
:1013A00008073743BCF1010F3E460DD02F61C378CB
:1013B000012B58D10B696B61C4F3076363F07B03A6
:1013C00063F31F642C6019E06CF35E762E61C678BF
:1013D000012E01D10E696E610669C968B66816F4FE
:1013E000807FC4F307660CBF66F05B0666F06B0691
:1013F00066F31F642C609BB2FFF760FD0020BDE820
:10140000F08100EB82028D68526DC5F312071468FB
:101410001669CBB967F31206012363F3DC46166144
:10142000C378012B04BF0B695361BCF1010F03D1D9
:101430004B79ABB144F00054C4F3076363F07B0312
:1014400063F31F641460D9E72B44013BB3FBF5F34E
:10145000C3F3090363F3DC467B4363F31206DEE761
:1014600044F08054E8E70369596B0EFA02FE4EEA35
:1014700001015963A0E700BF0000F81F37B54A78A3
:101480004B69012A3BD185692A682C6900943BB1DC
:101490008C689C423ABF4C6104F07F0303F07F03E9
:1014A000009C24F4C01424F07F0443F400231C4364
:1014B0002C610094C478012C0DD10B78096900EBE4
:1014C00083039B695961C2F3076363F07B0363F392
:1014D0001F622A6010E0C2F3076363F07B0363F3CB
:1014E0001F622A6044B94B6933B102690978506BB5
:1014F00001238B4003435363002003B030BD0A78BF
:1015000000EB8202556D2A682C6900948C6803B147
:101510004C61009B04F07F0423F4C01323F07F038D
:1015200044F400241C432C61C378012B04BF0B69D5
:101530006B61C8E74B780A78012B00EB820011D170
:1015400080690B490268002AA8BFC2F380739B031D
:1015500001EA124143F020030B4363F31F42026090
:1015600000207047426D136843F400131360F7E7DF
:10157000DFBFFFFF0B784A78C97800EB8300012AB0
:101580000CBF8269426D1368023901296FF355530C
:101590008CBFC3F30071012161F31C731360002041
:1015A000704703699869DB691840000C704700EBCD
:1015B00081014B6D9A68036958691040704703694F
:1015C0009869DB69184080B27047436D064A1A611A
:1015D000C278012A06D100F2CC5058611A684FF047
:1015E00080221A60704700BF180008C0D0F8183178
:1015F00010B50446D3B102699368DB0716D5837A28
:1016000043B1D0F80C3123F0030161F30703D0F8A4
:101610000C110B60536843F0010353600520FFF782
:101620001AFC2269536823F00103536010BD837ACA
:1016300063B103699B68DB0708D5D0F80C3123F050
:10164000030262F30703D0F80C211360704738B52A
:101650000123044680F81231407804F1140200237B
:10166000FF21984210D8236900221A615A61DA6179
:101670004FF0FF329A612046FFF712FD20461021FD
:10168000BDE83840FFF7ECBC52F8045FA960D56BA9
:101690000133A960E5E74A780B78012A00EB830063
:1016A0000BD183691B689902C3F3074213D412F06C
:1016B000020F0CBF302020207047436D1B68C3F31E
:1016C00007429B0209D412F0020F0CBF4FF44050A6
:1016D0004FF400507047102070474FF4805070470F
:1016E00070B44C780B78012C06460D4600EB830352
:1016F00016D19C69102A236802D170BCFFF71ABF6B
:10170000202A02D143F0006311E0302A1DD19A0251
:1017100016D500236B712946304670BCFFF72ABFEF
:101720005C6DB2F5805F236804D143F4001323603D
:1017300070BC7047B2F5005FE4D0B2F5405FE5E7FA
:1017400043F0044343F40043F1E7002AEFD162F38E
:10175000CF33ECE770B504460125FFF7D2FB002339
:10176000607884F8125184F8143104F58E721946A9
:101770004026984202F128021AD8002204F55D732F
:1017800011464025904203F128031FD82046FFF759
:1017900060FC2046FFF712FC00212046FFF79CFC6E
:1017A0002046FFF7EDFC2046BDE87040FFF74ABC3D
:1017B00002F8283C22F8223C42E9086102F8275C42
:1017C00002F8251C42F8141C0133D2E703F8282C38
:1017D00023F8222C43E9085103F8271C03F8251CA1
:1017E00043F8141C0132CDE711F0800F70B50D469F
:1017F0004FF028041AD001F07F0504FB050104FB1B
:101800000504012601F58E7184F81C5184F81D61D0
:10181000C4F8242184F81F31A4F82251022B04BFFC
:1018200000230B71FFF740FD002070BD04FB010198
:1018300004FB050401F55D7184F87453002584F8F8
:101840007553C4F87C2384F87733E7E74BB2002B59
:1018500010B54FF0280201F07F04B5BF02FB04026F
:1018600002FB010102F58E7101F55D71DB0F0C7059
:101870004B70FFF74DFD002010BD38B501F07F051E
:10188000282404FB050104FB050401F55D71C4F87F
:1018900088330023C4F88023C4F88C3384F875336C
:1018A00084F87453C378012B08BFC4F884231DB98E
:1018B000FFF7E4FD002038BDFFF746FDFAE770B5FD
:1018C00001F07F05282606FB050406FB0501C4E997
:1018D0004A2201260022C4E94C3201F58E7184F8B7
:1018E0001D6184F81C511DB9FFF7C8FD002070BDB3
:1018F000FFF72AFDFAE74BB2002B10B54FF0280294
:1019000001F07F04B5BF02FB040202FB010102F5F6
:101910008E7101F55D710122DB0F8A700C704B70C6
:10192000FFF708FE002010BD38B54BB201F07F056F
:10193000002B4FF02802ADBF02FB010102FB0502A4
:1019400002F58E7101F55D710024DB0F8C700D7056
:101950004B70FFF70FFE204638BD08B50B0605D5C6
:1019600001F07F01FFF77CFB002008BDFFF798FB2B
:10197000FAE70269002361F30A1311680B4313604D
:101980007047026953686FF3410353600320FFF708
:1019900062BA0269536843F0020353600320FFF701
:1019A0005ABA11F0800F4FF028031BBF01F07F01DE
:1019B00003FB010103FB010101F58E7108BF01F575
:1019C0005D71FFF768BE11F0800F4FF028031BBF59
:1019D00001F07F0103FB010103FB010101F58E71A1
:1019E00008BF01F55D71FFF77BBE00002DE9F04FE8
:1019F00085B00446FFF78DFB18B9002005B0BDE89F
:101A0000F08F2046FFF790FB06460028F5D0C0F384
:101A1000074313F0080000930ED02046FFF7C1FDE6
:101A2000DFF894A2074604F1540BA0464FF00009DA
:101A3000002F40F0F8800120009B5B070DD5204669
:101A4000FFF7BDFD04F11807814625464FF0000A57
:101A5000B9F1000F40F034810120B70742BFE368BD
:101A600002225A61002EF5B219DAA37A43B1D4F8F2
:101A70000C3123F0030262F30703D4F80C21136046
:101A80002269536823F0010353608B4B1B68204687
:101A90009B699847E3684FF000425A610120310585
:101AA000C6F307272DD500238DF80F3094F8123197
:101AB0008DF80F30804B1B6820465B69984723697F
:101AC000E2689B684FF400615161A27AC2B1DA0703
:101AD00016D594F81531012B12D19DF80F30032B38
:101AE0000ED1D4F80C311A6842F001021A601A685B
:101AF00042F003021A60714A136943F0060313614E
:101B000001202B0708D56C4B1B682046DB689847E3
:101B1000E36808225A610120EE0615D5E3689A6948
:101B200022F010029A611D6AC5F34343022B05F0AF
:101B30000F0800F05D81062B00F07581E268936963
:101B400043F0100393610120FD0632D522695368EA
:101B5000002523F00103536029462046FFF780FA51
:101B600094F801C02E4604F114022B46FF20634571
:101B7000C0F06A8123694FF0FF329A614FF0011281
:101B8000DA610B2262F3070562F307065D611E61ED
:101B90001A686FF30A121A602046FFF716FDE36811
:101BA0004FF480525A61444B1B6820461B6998478A
:101BB0000120B9061BD52046FFF763FBE3682046EA
:101BC000DD68FFF751FB03280BBF092305234FF402
:101BD0000072402263F38D25E368A2800CBF0021D0
:101BE00001214FF40052A1700120DD605A61009B79
:101BF000DA0609D5304B1B682046DB699847E36855
:101C00004FF480125A610120009B9B067FF5F6AECF
:101C1000294B1B6820461B6A9847E3684FF4001263
:101C20005A610120EAE6F8073DD55FFA89F12046BE
:101C30000191FFF7BCFC10F0010F0199054620D07F
:101C4000DBF8002001259560E078A84207D11069F3
:101C5000D8F87C23C0F31200121AC8F88C23DAF8E3
:101C60000020204612689047E278012A09D1B9F194
:101C7000000F06D194F81121052A02D12046FFF762
:101C8000A4FCA90741BFDBF8002002252B46936086
:101C90002A0708D5DAF80020204692689047DBF83A
:101CA00000200823936009F101097F080BF1040B60
:101CB00008F12808BCE600BFA800002000ED00E005
:101CC00019F0010F6FD023695FFA8AFB1969586B0D
:101CD00004EB8B0220FA0BF892694FEAC81892685D
:101CE0005FFA88F848EA010808EA020818F0010FCC
:101CF0001ED05A6B012101FA0AF122EA01025A634D
:101D00003B684FF00108C3F80880534B1B685946E5
:101D10005B6820469847E378434509D1BAF1000F44
:101D200006D194F81131042B02D12046FFF74DFC67
:101D300018F0080F1EBF3B684FF00808C3F8088072
:101D400018F0100F1EBF3B684FF01008C3F8088052
:101D500018F0400F1EBF3B684FF04008C3F80880E2
:101D600018F0020F1EBF3B684FF00208C3F808804E
:101D700018F0800F17D0D5E94C329B1AD5F82421E2
:101D8000934228BF134603339B0801933B68019A93
:101D90009B699BB2934203D9D5E94C32934209D84F
:101DA0003B6880229A600AF1010A4FEA5909043718
:101DB00028354DE6A3EB0208D5F82431D5F82811D3
:101DC000984528BF984608F103039B0801935A469B
:101DD0001FFA88F32046FFF771F8D5F828314344FD
:101DE000C5F82831D5F834314344C5F83431CDE74E
:101DF00047F6F0732B423FF4A1AE282606FB0846B7
:101E0000C5F30A15D6F880132A462046FFF769F86D
:101E1000D6F880332B44C6F88033D6F88C332B4465
:101E2000C6F88C338AE6082204F2CC512046FFF72C
:101E300058F8282303FB0848C5F30A15D8F88C3353
:101E40002B44C8F88C3379E652F8041F8860D16BB4
:101E5000013388608BE600BFA800002010B5074C56
:101E60002068FF2807D00649064B51F8042B9B68D1
:101E70009847FF232360002010BD00BF18000020FA
:101E8000E00D002094000020432301480B807047A0
:101E90001C0000201A4938B5CB68052B03F101025C
:101EA00002D0CA60002038BD0A7C0023012ACB6022
:101EB000F8D04A69B2F5004F08BF4B61D1E905245B
:101EC000A24202D100230B74ECE794BFA41AC2F51E
:101ED0000044402C97BF1519403CA3B2002488BF92
:101EE00002F14005CC614FF001044D610C740549CD
:101EF00088BF402311FA82F28121FFF7E0FCD1E78D
:101F0000E00D0020440E002038B52823084D03FBC7
:101F10000101084BB1F88C131B6904462846984709
:101F200040232A4601212046FFF7A7FC002038BDA8
:101F3000000E00209400002070B50E7816F06003AB
:101F400005460C4624D0202B1ED1CA884B78AAB156
:101F500031060AD51E4918468E681E49B047E288E8
:101F60001C49284600F076FA06E01B490B601B4925
:101F700041F8042B00F083FA002008E014491846C9
:101F80008C681146A047F7E700F061FC022070BDA5
:101F90004B780A2B10D00B2B11D0062BECD14B8891
:101FA0001B0A212B05D1CA880D493A2A28BF3A229B
:101FB000D7E70C493A22D4E70B490122D2E78B78C4
:101FC00013B9064A1366D7E700F041FCD4E700BF17
:101FD00094000020E40D002018000020E00D0020F7
:101FE0002E00002025000020400E002010B5812189
:101FF0000446FFF72BFC01212046FFF727FC822136
:102000002046FFF723FC024B5B689847002010BD79
:102010009400002038B54022044602238121FFF7B6
:10202000E3FB0223402201212046FFF7DDFB822152
:10203000032308222046FFF7D7FB084B0222002586
:102040001A715D71064B1B689847064A40230121AF
:102050002046FFF712FC284638BD00BFD8000020FC
:1020600094000020000E002038B50E4C237C012B7C
:1020700002D1E16911B92174002038BD626940299B
:1020800097BF8D1840398BB20021E161064984BFAA
:1020900002F14005402311FA82F281216561FFF7C8
:1020A0000EFCE9E7E00D0020440E00200020704700
:1020B000202803D021280DD0002070470E4B0A683D
:1020C0001A600A791A714A795A718A799A710122C9
:1020D000DA71F1E7084B1A680A701A68120A4A7036
:1020E0005A888A70DA78CA701A790A715A794A71EC
:1020F0009B798B71E0E700BF8C00002070B5094A26
:10210000094D0144884201D1002070BD146810F8C7
:10211000016B2E55631CB3F5004F28BF00231360DD
:10212000F0E700BFF80D0020440E002038B504464B
:102130004518AC4201D1002038BD14F8010BFEF760
:10214000F8FAF6E70020704710B5D0F8E8350446F5
:102150001B699847032384F81231002010BD08B58D
:1021600090F8123180F81331042380F81231D0F83E
:10217000E835DB689847002008BD08B5D0F8E4359D
:10218000DB6903B19847002008BD08B5D0F8E435F5
:102190001B6A9847002008BD08B5D0F8E4355B6A93
:1021A0009847002008BD002310B519460446402278
:1021B000FFF71AFB4022802100232046FFF714FB83
:1021C000012384F81231D4F8E835A0785B68984789
:1021D000002010BD13B56946044600F023FB9DF8AE
:1021E000001001F01F03012B09D0022B0CD083B982
:1021F0006946204600F08AF9002002B010BD694609
:10220000204600F09BFAF7E76946204600F0AEFA58
:10221000F2E701F080012046FFF76DFBECE710B517
:10222000044669BB90F81131032B1AD1D0F89033D2
:10223000D0F87C23934216D9C178012908BFD0F881
:102240008013A3EB020304BF8918C0F880139A42DD
:1022500028BF1A46D0F88013C0F8903392B200F02D
:102260001BF9002010BDD0F8E4351B6923B190F8AC
:102270001221032A00D19847204600F015F9F0E713
:10228000D0F8E4359B69002BEBD090F81221032A9B
:10229000E7D19847E5E738B50446002949D190F8D9
:1022A0001131022B17D1D0F83821D0F824319A42BD
:1022B0001ED9C178012904BFD0F82811C918A2EB92
:1022C000030208BFC0F82811C0F83821D0F828113F
:1022D00092B200F0CCF894F81631012B06D11A4ACC
:1022E000236912685A60002384F81631002038BD33
:1022F000D0F83C21B2FBF3F503FB15255DB9934201
:1023000009D8D0F840319A4205D22A4600F0AFF8F9
:10231000C4F84051DFE7D4F8E435DB682BB194F81A
:102320001221032A01D120469847204600F0CBF81D
:10233000D1E7D0F8E4355B69002BD7D090F81221B3
:10234000032AD3D19847D1E7888E00202DE9F041A8
:10235000044616461F46DDF818800D46FEF724FD9C
:1023600020462946C4F8E475C4F8E885C4F8EC654D
:10237000FFF7F0F9D4F8E8351B6898472046BDE828
:10238000F041FEF757BD00207047D0F8E43510B596
:1023900004461B689847D4F8E8359B6898470020A6
:1023A00010BD08B5D0F8E4355B689847002008BD3B
:1023B000122301480B807047D800002004230148F5
:1023C0000B807047EA00002010B5044C04480A4610
:1023D000214600F04AFA204610BD00BF9C8E002026
:1023E00040BD000810B5044C04480A46214600F0E0
:1023F0003CFA204610BD00BF9C8E002061BD000845
:1024000010B5044C04480A46214600F02EFA204636
:1024100010BD00BF9C8E002074BD000810B5044C98
:1024200004480A46214600F020FA204610BD00BFAD
:102430009C8E002081BD000810B5044C04480A465B
:10244000214600F012FA204610BD00BF9C8E0020ED
:102450008CBD000810B51346C0E94E22022280F858
:1024600011210A460021FFF72AFA002010BD08B505
:1024700013460A460021FFF722FA002008BD10B5D6
:102480001346C0E9E422032280F811210A46002104
:10249000FFF7F3F9002010BD08B513460A460021E6
:1024A000FFF7EBF9002008BD10B5042380F81131C7
:1024B000002304461A461946FFF701FA2046FFF7A3
:1024C00084F8002010BD10B5052380F811310023D9
:1024D00004461A461946FFF7D0F92046FFF775F86B
:1024E000002010BD282303FB0100B0F88C037047C7
:1024F00010B580210446FFF7FEF920460021FFF7C2
:10250000FAF92046BDE81040FFF75FB873B54B7885
:1025100004460D46092B6DD8DFE813F0BE00FC0021
:102520006C00CE006C0063000A006C00B0008300F9
:102530004B881E0A022E25D0032E2ED0012E59D1F3
:10254000D0F8EC3580781B680DF106019847EB88D0
:10255000402B03D094F81231012B02D10823ADF89F
:102560000630BDF80620002A56D0EB88002B53D049
:102570009A4228BF1A46ADF8062001462046FFF7CA
:1025800069FF49E0D0F8E43580789B6A0DF10601D7
:1025900098474670C4F8F005E3E7DBB2052B29D86D
:1025A000DFE803F0030B0F13171BD0F8EC355B6863
:1025B000A0780DF106019847D3E7D0F8EC359B6879
:1025C000F6E7D0F8EC35DB68F2E7D0F8EC351B69BC
:1025D000EEE7D0F8EC355B69EAE7D0F8EC359B69BB
:1025E000E6E78B8833B9CB8823B990F812314D8850
:1025F000032B03D12046FFF77BFF0DE005F07F059D
:1026000080F814512946FFF7B4F92046FFF74CFF34
:102610002DB1022384F81231002002B070BD0123D5
:10262000F8E78978414D01292970E3D890F81231F3
:10263000022B0DD0032BDDD1B1B9022380F812316A
:1026400080F81011FFF7ADFE2046FFF72DFFE3E7FE
:102650000029F9D00121032380F8101180F81231EC
:102660002046FFF792FEEFE790F810110129EBD01A
:10267000FFF797FE297884F81011F1E7CA88012A3C
:10268000B8D190F81231022B04D0032BB2D100F54F
:10269000887173E7264971E790F81231023B012BEC
:1026A000A8D8224B01229A60D0F818210AB103223F
:1026B0009A602049022261E74B88012B08D1C4F8B7
:1026C0001831D4F8E43529469B6820469847BBE783
:1026D000022BA1D10B798A88002B9DD10369120AA4
:1026E000013A5B68042A07D8DFE802F0030C0E10F9
:1026F0001200012262F306130F4A1360012384F8CB
:102700001631A1E70222F5E70322F3E70422F1E7FD
:102710000522EFE790F81231023B012B3FF66AAF3A
:102720004B88012B7FF478AF0023C8E78C8E002004
:10273000908E0020948E0020888E002038B590F86E
:102740001231032B04460D460DD10B79012B0AD80B
:10275000D0F8E4359B689847EB8813B92046FFF71B
:10276000A3FE002038BDFFF7C3FEFAE738B50D46DB
:102770008A886B780979012B04463DD0032B20D041
:1027800043BB90F81231022B44D0032B1FD112F01F
:10279000800F4FF028031BBF01F07F0103FB0101F5
:1027A00003FB010191F81E3108BF91F876331C49F3
:1027B000003B18BF012341F80C3F0222FFF74AFEFD
:1027C00008E090F81231022B24D0032B04D02046CD
:1027D000FFF78EFE002038BD6B881BB94B0601D079
:1027E000FFF789F8D4F8E43529469B6820469847D6
:1027F0002046FFF759FEEDE790F81231022B09D081
:10280000032BE4D16B88002BE4D14A06F0D0FFF70C
:102810008BF8E7E74B06DDD0FFF76DF8DAE700BF8E
:102820008C8E002090F8CC350B7090F8CD354B7025
:10283000B0F8CE354B80B0F8D0358B80B0F8D235BB
:10284000CB80C0F84031012380F81131704710B5BA
:1028500080210446FFF74FF820460021FFF74BF890
:102860002046BDE81040FEF7B0BE70B50D461646D6
:10287000044670B106F044FAC3B201335B00338002
:102880002B7003236B70013C0223002014F8011FFE
:1028900001B970BD5A1CD2B2E9540233A854DBB25C
:1028A000F4E700BF014B05221A70704714010020A5
:1028B000014B05221A70704714010020014B0622BB
:1028C0001A70704714010020014B05221A707047DE
:1028D00014010020014B05221A70704714010020DA
:1028E000014B05221A70704714010020014B05228C
:1028F0001A70704714010020014B1878704700BF10
:1029000014010020034B40F0BF6040F40030D86059
:10291000704700BF00ED00E0027870B502F01F03C1
:1029200001259D40C3785409C3B10F4B4178DB6842
:10293000DB43C3F30223C3F10406F6B2B1400F2612
:102940001E418378C9B233400B4308491B010A4436
:10295000DBB282F8003341F8245070BD034B2034C1
:1029600043F82450F9E700BF00ED00E000E100E08B
:1029700021F06041024B21F07F01014399607047D3
:1029800000ED00E0044B1A6911B102431A6170476F
:1029900022EA0002FAE700BF00ED00E04FF0E0237A
:1029A00004281A690CBF42F0040222F004021A61E2
:1029B000704700BF08B501214FF4807004F014F88F
:1029C000BDE8084000214FF4807004F00DB8436862
:1029D0000A7923F0407323F4807343EA02230A68E0
:1029E00013434360D1E9032313438A6810B51343AB
:1029F0008468084A224013434A7943EA42038360C9
:102A00000A7DC36A013A23F47003D2B243EA025347
:102A1000C36210BDFDF7FFC00023C0E902330360AD
:102A200083800361012303757047D0E900320649B2
:102A300010B513434C68054A224013438268134380
:102A4000C26813434B6010BD00230140E030FCFF1F
:102A50000023C0E90033C0E902337047836819B12D
:102A600043F001038360704723F00103FAE74368F2
:102A700023F4400323F400730B4343607047416227
:102A800082627047436823F01F0319434160704717
:102A9000044B5A6818B142F400025A60704722F49D
:102AA0000002FAE700230140044B5A6818B142F4CF
:102AB00080025A60704722F48002FAE70023014046
:102AC000092970B51BD9A1F10A04C56804EB4404B7
:102AD0000726A64025EA060503FA04F42C43C46041
:102AE000062A17D8013A436B02EB82021F24944056
:102AF00023EA040301FA02F21A43426370BD046937
:102B000001EB41060725B54024EA0504B340234301
:102B10000361E5E70C2A0CD8073A036B02EB82024B
:102B20001F24944023EA040301FA02F21A430263C9
:102B3000E4E70D3AC36A02EB82021F24944023EAC1
:102B4000040391401943C162D8E7836843F080438E
:102B5000836070478068C0F380507047836819B104
:102B600043F480638360704723F48063FAE78368EB
:102B700019B143F002038360704723F00203FAE7C0
:102B80004368013923F4604343EA413343607047AB
:102B9000436819B143F400634360704723F4006352
:102BA000FAE7C06C80B27047014BD3F80803704756
:102BB00000200140836819B143F48073836070473B
:102BC00023F48073FAE7836819B143F400738360D8
:102BD000704723F40073FAE7044B5A6818B142F4C3
:102BE00000525A60704722F40052FAE70023014075
:102BF000092970B51CD9A1F10A04C56804EB440485
:102C00000726A64025EA060503FA04F42C43C4600F
:102C1000836B0232C3F30154121BD2B202EB820265
:102C20001F24944023EA040391401943816370BD3B
:102C3000046901EB41060725B54024EA0504B340C9
:102C400023430361E4E7836B013923F4401343EA30
:102C500001538363704782B0002301930190019B6D
:102C600019440191019B1A6002B07047836823F4F4
:102C700070230B4383607047836823F440130B4336
:102C800083607047836843F4800383607047FFF775
:102C900061BF436819B143F480634360704723F414
:102CA0008063FAE7436819B143F480534360704787
:102CB00023F48053FAE782B0002301930190019B33
:102CC00028330B440193019B186880B202B070470F
:102CD000C9B201238B401AB1426813434360704765
:102CE000426822EA0303F9E70368194214BF01208E
:102CF00000207047C943016070474268006810EACD
:102D0000112006D0C9B201238B40134214BF012009
:102D1000002070476FEA11210160704708B50C4B25
:102D200098424FF001010AD14FF0007003F050FEBD
:102D300000214FF00070BDE8084003F049BE4FF09D
:102D4000806003F045FE00214FF08060F3E700BF94
:102D500000640040026822F002020260026842F051
:102D60000102026003464FF480325868C00701D464
:102D7000013AFAD1586810F0010053D08A79012A3B
:102D80001A680CBF42F0800222F080021A60CA79F1
:102D9000012A1A680CBF42F0400222F040021A6079
:102DA0000A7A012A1A680CBF42F0200222F020029F
:102DB0001A604A7A012A1A680CBF42F0100222F007
:102DC00010021A608A7A012A1A680CBF42F00802BF
:102DD00022F008021A60CA7A012A1A680CBF42F06F
:102DE000040222F004021A60CA788878120642EAC5
:102DF0008072087942EA00424879098842EA005222
:102E000001390A43DA611A6822F001021A604FF4AC
:102E100080325968C90701D5013AFAD15868C043D0
:102E200000F001007047354A837A30B5D2F800428D
:102E300044F00104C2F80042D2F81C52012199402A
:102E400025EA0105C2F81C52057BCC43002D34D184
:102E5000D2F80C52DB002540C2F80C5203F180433B
:102E6000C588428803F5C84342EA0542C3F84022B8
:102E70008588028842EA0542C3F84422C37A1F4A81
:102E800083BBD2F8043223400589C2F804321B4BBD
:102E900065BBD2F814522C40C2F81442427B012A7E
:102EA00002BFD3F81C220A43C3F81C22D3F8002225
:102EB00022F00102C3F8002230BD012DDED1D2F88C
:102EC0000C52DB000D43C2F80C5203F1804305881D
:102ED000428803F5C84342EA0542C3F84022858888
:102EE000C288C7E7D2F804320B43CDE7012D02BFF9
:102EF000D3F814220A43C3F81422CFE70064004039
:102F00000123038040F20322002343808280C38098
:102F10000381438170470E4BD3F8002242F0010237
:102F2000C3F80022D3F8002222F47C5222F00E02D1
:102F3000C3F80022D3F8002242EA0022C3F800229C
:102F4000D3F8002222F00102C3F80022704700BF2C
:102F500000640040036819B143F480330360704794
:102F600023F48033FAE70368A9B143F080030360D8
:102F7000D0F8843143F48073C0F88431D0F89431B0
:102F800043F48073C0F89431D0F8A43143F48073D3
:102F9000C0F8A431704723F080030360D0F8843177
:102FA00023F48073C0F88431D0F8943123F4807313
:102FB000C0F89431D0F8A43123F48073E8E7836833
:102FC000F0B50446580139D4A3681A0138D4A3686F
:102FD000DB003FD5022004EB0013D3F8802102F080
:102FE0000102C3F880210D7A4A7A5DBB0E68D3F8DE
:102FF000805142EA46522A43C3F880218A7A02F07D
:103000000F028A72D3F8845125F00F05C3F884515A
:10301000D3F884512A43C3F8842104EB0014D1F877
:103020000B20C4F88821D1F80F20C4F88C21D3F8E4
:10303000802142F00102C3F88021F0BD0020CAE7E0
:103040000120C8E74F68D3F8806142EAC7022A43EB
:103050003243D1E70420F0E701290AD0022913D036
:10306000C9B982680D4B02EA0300934307D10120DE
:10307000704780680A4B094A1840904207D8B0FA56
:1030800080F04009400070478068064BF3E7C31AA0
:103090005842584170470220704700BF03000004A7
:1030A0000003000800000310012907D0022909D0FD
:1030B00019B9836843F0800383607047836843F4E1
:1030C0000043F9E7836843F40003F5E700EB0113DD
:1030D00010B5D3F8B04104F004041472BCBBD3F8AB
:1030E000B041640D1460D3F8B04104F0020454728E
:1030F000D3F8B44104F00F049472D3F8B4311B0A2E
:10310000D37400EB0113D3F8B841D472D3F8B841AB
:10311000240A1473D3F8B841240C5473D3F8B8417B
:10312000240E9473D3F8BC41D473D3F8BC41240A61
:103130001474D3F8BC41240C5474D3F8BC311B0E66
:10314000937449B9C36843F02003C36010BDD3F83A
:10315000B041E4085460C6E7036943F0200303610B
:10316000F4E721B9C36843F02003C36070470369E3
:1031700043F020030361704719B9C06800F00300F1
:103180007047012901D10069F8E700207047B1B903
:10319000036823F0030343F0010303604FF480331B
:1031A000426802F00302012A01D0013BF8D14068D5
:1031B00000F00300012814BF0020012070470129FE
:1031C00011D1036823F0030303604FF48033426896
:1031D000920701D0013BFAD1436813F0030F0CBFF3
:1031E000012000207047022913D1036823F0030354
:1031F00043F0020303604FF48033426802F003029D
:10320000022A01D0013BF8D1406800F003000228F7
:10321000D1E700207047036823F0030343F0020363
:103220000360406800F00300831E58425841704715
:10323000036823F0020303604FF48033426892076F
:1032400001D5013BFAD1406880F00200C0F3400094
:103250007047806900F0700070478069000E704709
:103260008069C0F307407047436912B10B43436163
:10327000704723EA0103FAE711F4700F07D0806961
:103280000840C0F31300003818BF01207047CB017D
:1032900001D54068F4E70A0101D58068F0E78B01A9
:1032A0004CBFC0680069EBE70A4B994202D100238A
:1032B000836170478A01C1F3130301D5C36070476E
:1032C0004A0101D5036170470A014CBF8360436026
:1032D000704700BF7000F03002464069084015D0CA
:1032E000B1F5807F4BD012D8082908D801390729B9
:1032F0000BD8DFE801F0252E0A340A0A0A38202903
:1033000037D0402937D0102931D000207047B1F58F
:10331000004F43D00CD8B1F5806F34D0B1F5006FB9
:1033200035D0B1F5007FF0D19069C0F3400070470F
:10333000B1F5803F21D0B1F5003FE6D1506813E0F0
:10334000906800F0013020F08070003818BF012034
:103350007047D06810F0030018BF01207047D06894
:10336000C0F3C0007047D068C0F300107047106908
:10337000F0E71069F4E71069F6E75068F0E7906944
:1033800000F0010070479069C0F3800070479369B6
:1033900013F0700F14BF0120002070475068F3E74E
:1033A000B1F5007F36D00FD8202927D006D80429C0
:1033B0001FD0082920D0012918D07047402920D0DB
:1033C000B1F5807F26D07047B1F5004F20D006D8E8
:1033D000B1F5806F1ED0B1F5006F19D07047B1F50F
:1033E000803F10D0B1F5003F10D070470A4B83608A
:1033F00070470823C36070471023FBE7082303616D
:1034000070471023FBE70823436070471023FBE756
:10341000002383610423F7E701010100014B01222E
:103420009A60704700300240014B1860186870477E
:1034300000300240054B00EB8101884201D1186841
:10344000704750F8042B1A60F7E700BF00300240C5
:10345000014B1868704700BF00300240014B1871E3
:10346000704700BF00300240014B1879704700BF21
:10347000003002402DE9F0418EB015460646002787
:1034800006A80C469846019700F0D2FFC02D33D015
:10349000B5F5807F44D0802D0CD1059723681BBAE9
:1034A0000A9363681BBA0B93A3681BBA0C93E36877
:1034B0001BBA0D93002E77D100F0E0FF04213823D2
:1034C00002A8CDE90213049600F065FF06A800F0FB
:1034D0009BFF012000F0DAFF102001F0D7F8019BDC
:1034E00001330193019BB3F5803F33D00028F3D122
:1034F0000423029301262FE04FF480730593236881
:103500001BBA089363681BBA0993A3681BBA0A9392
:10351000E3681BBA0B9323691BBA0C936369C7E773
:103520004FF40073059323681BBA069363681BBAB4
:103530000793A3681BBA0893E3681BBA099323692E
:103540001BBA0A9363691BBA0B93A3691BBA0C934A
:10355000E369ADE70028CBD02022802302A8CDE983
:10356000032300F018FF00F089FF012000F08EFF18
:1035700001F084F8044698B108F11005C8F1FF285D
:1035800008F57F08159F344608F1F0080026149AC4
:1035900008EB05039A4200D95CB9002000F076FFE1
:1035A00020460EB0BDE8F08106A800F02DFF0023F4
:1035B0009FE755F8100C00F075FF55F80C0C00F063
:1035C00071FF55F8080C00F06DFF55F8040C00F081
:1035D00069FF0196102001F059F8019B0133019316
:1035E000019BB3F5803F11D00028F3D100F060FFBC
:1035F000386000F05DFF786000F05AFFB86000F0BE
:1036000057FF103747F8040C1035C0E70028EDD0FD
:103610000024F9E72DE9F04792B01F4680464FF0AD
:10362000000A0AA81A9ECDF804A00D46144600F020
:10363000FFFEC02F43D0B7F5807F54D0802F0DD12F
:10364000CDF814A023681BBA0E9363681BBA0F93BE
:10365000A3681BBA1093E3681BBA11932B681BBABB
:1036600006936B681BBA0793AB681BBA0893EB68A9
:103670001BBA0993B8F1000F7AD100F0FFFE0421C4
:10368000382302A8CDE90213CDF8108000F083FEA4
:103690000AA800F0B9FE012000F0F8FE102000F0AA
:1036A000F5FF019B01330193019BB3F5803F34D0BB
:1036B0000028F3D1042302934FF001082FE04FF4C8
:1036C0008073059323681BBA0C9363681BBA0D9330
:1036D000A3681BBA0E93E3681BBA0F9323691BBA46
:1036E00010936369B8E74FF40073059323681BBA1E
:1036F0000A9363681BBA0B93A3681BBA0C93E36825
:103700001BBA0D9323691BBA0E9363691BBA0F93FF
:10371000A3691BBA1093E3699EE70028CAD0282248
:10372000802302A8CDE9032300F035FE06A800F0AF
:1037300089FE00F0A3FE012000F0A8FE00F09EFF2D
:10374000044688B16FF00F091C9F06F11005A9EB24
:103750000609444600261B9A09EB05039A4200D944
:103760005CB9002000F092FE204612B0BDE8F08760
:103770000AA800F049FE00239DE755F8100C00F060
:1037800091FE55F80C0C00F08DFE55F8080C00F079
:1037900089FE55F8040C00F085FE0196102000F01B
:1037A00075FF019B01330193019BB3F5803F11D05D
:1037B0000028F3D100F07CFE386000F079FE7860DC
:1037C00000F076FEB86000F073FE103747F8040C86
:1037D0001035C0E70028EDD00024F9E72DE9F043CB
:1037E00093B09946054600260AA81A9F0196884676
:1037F000144600F01DFEB9F1C00F55D0B9F5807F19
:1038000066D0B9F1800F0CD1059623681BBA0E93D0
:1038100063681BBA0F93A3681BBA1093E3681BBAC3
:103820001193D8F800301BBA0693D8F804301BBAAD
:103830000793D8F808301BBA0893D8F80C301BBA95
:103840000AA8099300F0E0FDB5FA85F04009800070
:1038500030228023029002A8CDE9032300F09BFDD3
:1038600006A800F0EFFD00F009FE012000F00EFEBA
:1038700000F004FF044698B107F11005C7F1FF27D7
:1038800007F57F07DDF870800124F03700261B9ACA
:103890007B199A4201D9002C34D1002000F0F6FDAA
:1038A000204613B0BDE8F0834FF48073059323687E
:1038B0001BBA0C9363681BBA0D93A3681BBA0E93D3
:1038C000E3681BBA0F9323691BBA10936369A6E7D9
:1038D0004FF40073059323681BBA0A9363681BBAFD
:1038E0000B93A3681BBA0C93E3681BBA0D9323696F
:1038F0001BBA0E9363691BBA0F93A3691BBA10938B
:10390000E3698CE755F8100C00F0CCFD55F80C0C71
:1039100000F0C8FD55F8080C00F0C4FD55F8040C83
:1039200000F0C0FD0196102000F0B0FE019B0133B5
:103930000193019BB3F5803F15D00028F3D100F02F
:10394000B7FDC8F8000000F0B3FDC8F8040000F0AF
:10395000AFFDC8F8080000F0ABFD08F1100848F80A
:10396000040C103593E70028E9D00024F9E72DE98D
:10397000F04F97B0DDE921A8029304464FEACA034D
:1039800015460EA80022DDE923B703910193259E79
:10399000059200F04DFD029B0399C02B4FEACB0925
:1039A00051D0B3F5807F62D0802B4FF000020CD154
:1039B00009922B681BBA12936B681BBA1393AB68FE
:1039C0001BBA1493EB681BBA15930B681BBA0A93C6
:1039D0004B681BBA0B938B681BBA0C93CB681BBA52
:1039E000012C0D9340F01C8100F048FD0EA800F062
:1039F0000BFD0AA800F026FD00254FF40023CDE9B9
:103A0000065306A88023089300F0C5FC284600F062
:103A10002BFD204600F03AFD00F030FE0128FBD0DF
:103A2000BBF1000F70D04FF4803000F01DFD01207D
:103A300000F02CFD00F022FE002832D100242046A8
:103A400017B0BDE8F08F4FF4807309932B681BBA51
:103A500010936B681BBA1193AB681BBA1293EB6897
:103A60001BBA13932B691BBA14936B69ABE74FF422
:103A7000007309932B681BBA0E936B681BBA0F93E4
:103A8000AB681BBA1093EB681BBA11932B691BBA76
:103A900012936B691BBA1393AB691BBA1493EB694E
:103AA00091E708F11004C8F1FF2808F57F0808F134
:103AB000F008012000F0EAFD0028FAD054F8100CBC
:103AC00000F0F0FC54F80C0C00F0ECFC54F8080C7E
:103AD00000F0E8FC103454F8140C00F0E3FC08EBA0
:103AE00004035B45E5D300230593102000F0CEFDD1
:103AF000059B01330593059BB3F5803F01D000285A
:103B0000F3D1B0FA80F46409BAF1000F0CD04FF48D
:103B1000003000F0A9FC012000F0B8FC00F0AEFD80
:103B200000288BD084BB00244FF4403000F09CFC74
:103B3000012000F0ABFC00F0A1FD00283FF47EAFB7
:103B4000002528BA00F0AEFC99FA89F000F0AAFC32
:103B500028BA00F0A7FC019B18BA00F0A3FC0420CF
:103B600000F094FD0028FAD000F0A2FC306000F0D4
:103B70009FFC706000F09CFCB06000F099FCF0606D
:103B8000002000F083FC5AE7209B07F11005C7F1E5
:103B9000FF2707F57F0703F11008F037012000F039
:103BA00075FD0028FAD058F8100C00F07BFC58F88E
:103BB0000C0C00F077FC58F8080C00F073FC58F877
:103BC000040C00F06FFC00230593102000F05EFD54
:103BD000059B01330593059BB3F5803F1DD000285D
:103BE000F3D1042000F052FD0028FAD000F060FC70
:103BF00045F8100C00F05CFC45F80C0C00F058FC8B
:103C000045F8080C00F054FC103545F8140C7B19ED
:103C1000534508F11008C1D386E7002883D1E0E7B7
:103C200000F02CFC0EA800F0EFFB0AA800F00AFC44
:103C300004224FF40023CDE9062306A8802308932D
:103C400000F0A9FB002000F00FFC012000F01EFC9A
:103C500000F014FD0128FBD0BBF1000F70D04FF431
:103C6000803000F001FC012000F010FC00F006FDA7
:103C700000283FF4E3AE08F11004C8F1FF2808F56E
:103C80007F0808F1F008012000F000FD0028FAD0BC
:103C900054F8100C00F006FC54F80C0C00F002FC78
:103CA00054F8080C00F0FEFB103454F8140C00F02B
:103CB000F9FB08EB04039B45E5D80023059310208E
:103CC00000F0E4FC059B01330593059BB3F5803FB1
:103CD00001D00028F3D1B0FA80F46409BAF1000FE2
:103CE0000DD04FF4003000F0BFFB012000F0CEFB00
:103CF00000F0C4FC00283FF4A1AE1CBB00244FF42C
:103D0000403000F0B1FB012000F0C0FB00F0B6FC39
:103D100000283FF493AE002528BA00F0C3FB99FABF
:103D200089F000F0BFFB28BA00F0BCFB019B18BA79
:103D300000F0B8FB042000F0A9FC0028FAD013E73B
:103D40000124CBE7209B07F11005C7F1FF2707F5FA
:103D50007F0703F11008F037012000F097FC0028DE
:103D6000FAD058F8100C00F09DFB58F80C0C00F03D
:103D700099FB58F8080C00F095FB58F8040C00F07B
:103D800091FB00230593102000F080FC059B01337C
:103D90000593059BB3F5803F1DD00028F3D1042087
:103DA00000F074FC0028FAD000F082FB45F8100CFB
:103DB00000F07EFB45F80C0C00F07AFB45F8080C8F
:103DC00000F076FB103545F8140C7B199A4508F184
:103DD0001008C1D893E7002890D1E0E72DE9F04F13
:103DE000A1B0DDE92E57009104460021914614A8A8
:103DF0001022CDE90C11CDE90E11CDE91011CDE95C
:103E000012110391BDF8A8B0DDF8B0A0DDF8C080B4
:103E10001E4605F0A5FF0021002D40F0A7802D9F34
:103E2000329B9DF83010DBB2023B03EBD373C9F138
:103E30000E029B0002F007020A4303F0380313430B
:103E400000998DF830304A460DF13100019304F0AD
:103E5000A5FEB9F10D0F0CAB09F10100C9F10D027E
:103E60004FF0000188BF0022184405F079FF019B44
:103E70009AFA9AF203F00703ADF83E200DF13101F2
:103E80004A460DF141008DF8403004F087FE9DF860
:103E90004F3018A843F001038DF84F3000F0C8FAF6
:103EA000BBF1C00F00F09A80BBF5807F00F0AA80C4
:103EB000BBF1800F0DD10023079333681BBA1C930D
:103EC00073681BBA1D93B3681BBA1E93F3681BBAC1
:103ED0001F93109E33BA0893119B1BBA0993129B30
:103EE0001BBA0A93139B1BBA012CDDF830900B937D
:103EF00040F0618100F0C2FA18A800F085FA08A825
:103F000000F0A0FA4FF0000B4FF00813CDE904B316
:103F100004A88023069300F03EFA584600F0A4FA65
:103F2000484600F0BFFA0D9800F0BCFA0E9800F079
:103F3000B9FA0F9800F0B6FA204600F0A7FA00F0A0
:103F40009DFB0128FBD0002D00F09E804FF48030B7
:103F500000F08AFA012000F099FA00F08FFB0028A7
:103F60006AD10024204621B0BDE8F08FB5F57F4F1F
:103F7000EBB223D22A0A3A707B70023502222D9BC3
:103F80003A4459198B4224D1290710D025F00F0348
:103F90001033C5F10102591C1A448D4288BF00221A
:103FA00078190021019305F0DBFE019B1D46002DD1
:103FB0003FF436AF40238DF8303031E7FF223A70BE
:103FC000FE227A70B970F97039717B71063506225C
:103FD000D5E713F8010B02F8010BD3E74FF4807318
:103FE000079333681BBA1A9373681BBA1B93B368A1
:103FF0001BBA1C93F3681BBA1D9333691BBA1E933B
:10400000736964E74FF40073079333681BBA18931E
:1040100073681BBA1993B3681BBA1A93F3681BBA77
:104020001B9333691BBA1C9373691BBA1D93B36945
:104030001BBA1E93F3694AE73C46012000F026FBB9
:104040000028FAD0206800F02DFA606800F02AFA03
:10405000A06800F027FA103454F8040C00F022FA9B
:10406000E31B9D42E9D800230393102000F00EFBD0
:10407000039B01330393039BB3F5803F01D00028DA
:10408000F3D1B0FA80F46409BAF1000F0ED04FF406
:10409000003000F0E9F9012000F0F8F900F0EEFA44
:1040A00000283FF45EAF002C36D100244FF440309E
:1040B00000F0DAF9012000F0E9F900F0DFFA002859
:1040C0003FF44FAF304600F0EDF9119800F0EAF9F7
:1040D000129800F0E7F9139820F0807000F0E2F9F0
:1040E000042000F0D3FA0028FAD000F0E1F914908F
:1040F00000F0DEF9159000F0DBF9169000F0D8F929
:10410000319A329B179014A9D3189A4240F0328109
:10411000002000F0BBF925E72B9B08F11005C8F142
:10412000FF2808F57F0803F1100708F1F0080120C7
:1041300000F0ACFA0028FAD057F8100C00F0B2F9F1
:1041400057F80C0C00F0AEF957F8080C00F0AAF97B
:1041500057F8040C00F0A6F900230393102000F098
:1041600095FA039B01330393039BB3F5803F1ED065
:104170000028F3D1042000F089FA0028FAD000F0DA
:1041800097F945F8100C00F093F945F80C0C00F085
:104190008FF945F8080C00F08BF9103545F8140C30
:1041A00008EB0503534507F11007C0D37EE700284D
:1041B0007FF47BAFDEE700F061F918A800F024F986
:1041C00008A800F03FF904224FF00813CDE90423BA
:1041D00004A88023069300F0DEF8002000F044F9E4
:1041E000484600F05FF90D9800F05CF90E9800F079
:1041F00059F90F9800F056F9012000F047F900F046
:104200003DFA0128FBD0002D64D04FF4803000F03F
:104210002BF9012000F03AF900F030FA00283FF4C1
:10422000A0AE3C46012000F031FA0028FAD0206808
:1042300000F038F9606800F035F9A06800F032F954
:10424000103454F8040C00F02DF9E31B9D42E9D81A
:1042500000230393102000F019FA039B013303930A
:10426000039BB3F5803F01D00028F3D1B0FA80F46E
:104270006409BAF1000F0DD04FF4003000F0F4F8EB
:10428000012000F003F900F0F9F900283FF469AECD
:1042900014BB00244FF4403000F0E6F8012000F099
:1042A000F5F800F0EBF900283FF45BAE304600F083
:1042B000F9F8119800F0F6F8129800F0F3F8139856
:1042C00020F0807000F0EEF8042000F0DFF9002804
:1042D000FAD00AE70124CCE72B9B08F11005C8F1BE
:1042E000FF2808F57F0803F1100708F1F008012006
:1042F00000F0CCF90028FAD057F8100C00F0D2F8F2
:1043000057F80C0C00F0CEF857F8080C00F0CAF87B
:1043100057F8040C00F0C6F800230393102000F0B7
:10432000B5F9039B01330393039BB3F5803F1ED084
:104330000028F3D1042000F0A9F90028FAD000F0F9
:10434000B7F845F8100C00F0B3F845F80C0C00F085
:10435000AFF845F8080C00F0ABF8103545F8140C30
:1043600008EB0503534507F11007C0D392E7002877
:104370008FD1DFE711F8010B02F8010BC5E6000051
:1043800008B50121102002F00BFBBDE80840002118
:10439000102002F005BB174B1A6822F4002222F00D
:1043A000380210B51A60196842681143196019681B
:1043B00021F0C0011960196884682143196072B145
:1043C000182A03D80C4BD340DB0708D4094B1A68D2
:1043D00022F440721A601A68C1680A431A60054BD9
:1043E0001A6822F004021A601A6801680A431A6007
:1043F00010BD00BF00000650000101010023C0E90C
:104400000033C0E902337047084B02681A62426801
:104410005A6282689A62C268DA6202691A63426901
:104420005A6382699A63C269DA6370470000065072
:104430000023C0E90033C0E90233C0E90433C0E916
:1044400006337047044B02681A6442685A648268F3
:104450009A64C268DA647047000006500023C0E91D
:104460000033C0E902337047034A136823F4403332
:1044700003431360704700BF00000650024A1368F0
:1044800043F480431360704700000650044B1A68E1
:1044900018B142F400421A60704722F40042FAE771
:1044A00000000650014B9860704700BF00000650A6
:1044B000014BD868704700BF0000065073B500225A
:1044C0000192374A0346106920F00100106110681C
:1044D00010F0080F0CBF152511254FF6FF76506818
:1044E000019C01340194019CB44200EA050001D012
:1044F0000128F4D15068284001284FD1146924F0D4
:1045000002041461146824F400441460146824F054
:104510007F4424F4740424F47C4424F003041C60D9
:10452000146C5C60546C9C60946CDC60D46C1C619A
:104530000C685C614C689C618C68DC61CC681C62B6
:104540000C695C624C699C628C69C969DC621963A4
:10455000116D5963516D9963916DD963D16D196472
:10456000116E5964516E9964916ED964D16E19655A
:10457000116F5965516F9965916FD965D16F196642
:10458000D2F880105966D2F884109966D2F8881053
:10459000D966D2F88C201A6702B070BD0020FBE704
:1045A00000000650214B02681A6042691A62826953
:1045B0005A62C2699A62026ADA62426A1A63826A5B
:1045C0005A63C26A9A63026BDA6342681A64826849
:1045D0005A64C2689A640269DA64426B1A65826B33
:1045E0005A65C26B9A65026CDA65426C1A66826C17
:1045F0005A66C26C9A66026DDA66426D1A67826DFF
:104600005A67C26D9A67026EDA67426EC3F88020FD
:10461000826EC3F88420C26EC3F88820026FC3F88C
:104620008C201A6842F400421A607047000006505D
:10463000054A136911B118431061704723EA00035A
:1046400003F0FF031361704700000650054A5369E9
:1046500011B118435061704723EA000303F0FF03D0
:104660005361704700000650034BDB69184214BFCA
:1046700001200020704700BF00000650024B186860
:10468000C0F3C030704700BF00000650054B10F06B
:10469000200F14BF9B695B68184214BF01200020E3
:1046A000704700BF000006502DE9F0438FB004466C
:1046B000002606A8884617461D460196FFF7B8FE55
:1046C000013C18BF012410228023A40002A8CDE9D8
:1046D00003230294FFF75FFED8F800301BBA08935B
:1046E000D8F804301BBA06A80993FFF78DFEFFF730
:1046F000C5FE0120FFF7CAFEFFF7C0FF044688B1E0
:1047000007F10808C7F1FF2707F57F07DDF8589084
:104710000124F83707EB08039D4200D934B9002083
:10472000FFF7B4FE20460FB0BDE8F08358F8080C40
:10473000FFF7B8FE58F8040CFFF7B4FE01961020FE
:10474000FFF7A4FF019B01330193019BB3F5803F69
:104750000ED00028F3D1FFF7ABFEC9F80000FFF739
:10476000A7FE09F1080949F8040C08F10808D1E787
:104770000028F0D00024F8E72DE9F04393B0044678
:1047800000260AA8894690461F461A9D0196FFF703
:104790004FFE013C18BF012418228023A40002A868
:1047A000CDE903230294FFF7F6FDD9F800301BBAD8
:1047B0000C93D9F804301BBA0AA80D93FFF724FE16
:1047C000D8F800301BBA0693D8F804301BBA06A8F4
:1047D0000793FFF737FEFFF751FE0120FFF756FE64
:1047E000FFF74CFF044688B107F10808C7F1FF271F
:1047F00007F57F07DDF86C900124F83707EB080315
:104800009D4200D934B90020FFF740FE204613B086
:10481000BDE8F08358F8080CFFF744FE58F8040C84
:10482000FFF740FE01961020FFF730FF019B013398
:104830000193019BB3F5803F0ED00028F3D1FFF721
:1048400037FEC9F80000FFF733FE09F1080949F8FF
:10485000040C08F10808D1E70028F0D00024F8E79C
:104860002DE9F0438FB00027054606A80C46904678
:104870001E460197FFF7DCFD013D18BF012580238F
:10488000AD0002A80493CDE90257FFF784FD236829
:104890001BBA089363681BBA0993A3681BBA0A93EF
:1048A000E3681BBA0B9323691BBA0C9363691BBAA9
:1048B00006A80D93FFF7A8FDFFF7E0FD0120FFF725
:1048C000E5FDFFF7DBFE044690B108F10805C8F1ED
:1048D000FF2808F57F08DDF85890012408F1F80852
:1048E00008EB05039E4200D934B90020FFF7CEFD46
:1048F00020460FB0BDE8F08355F8080CFFF7D2FD55
:1049000055F8040CFFF7CEFD01971020FFF7BEFE0F
:10491000019B01330193019BB3F5803F0DD000282B
:10492000F3D1FFF7C5FDC9F80000FFF7C1FD09F19C
:10493000080949F8040C0835D2E70028F1D0002412
:10494000F9E72DE9F04393B0054600270AA80C4685
:10495000914698461A9E0197FFF76AFD013D18BFE0
:10496000012508228023AD0002A8CDE9032302958A
:10497000FFF711FD23681BBA0C9363681BBA0D93F4
:10498000A3681BBA0E93E3681BBA0F9323691BBA83
:10499000109363691BBA0AA81193FFF735FDD9F884
:1049A00000301BBA0693D9F804301BBA06A8079347
:1049B000FFF748FDFFF762FD0120FFF767FDFFF7F6
:1049C0005DFE044690B108F10805C8F1FF2808F51E
:1049D0007F08DDF86C90012408F1F80808EB050366
:1049E0009E4200D934B90020FFF750FD204613B095
:1049F000BDE8F08355F8080CFFF754FD55F8040C9A
:104A0000FFF750FD01971020FFF740FE019B013397
:104A10000193019BB3F5803F0DD00028F3D1FFF740
:104A200047FDC9F80000FFF743FD09F1080949F8FF
:104A3000040C0835D2E70028F1D00024F9E7000083
:104A400008B501214FF0005001F0C2FFBDE8084059
:104A500000214FF0005001F0BBBF30B5084C40F6CC
:104A6000FE732268834022EA0302D1E900352B431A
:104A70008D68C9682B430B4383401343236030BDCB
:104A8000007400400023C0E90033C0E902337047DE
:104A9000012303FA00F0044B1A6811B102431A60B3
:104AA000704722EA0002FAE7007400400009012280
:104AB000054B824019B159680A435A6070475968DA
:104AC00021EA0202F9E700BF00740040044B5A6873
:104AD00018B142F003025A60704722F00302FAE76D
:104AE00000740040054B81401AB11A680A431A60ED
:104AF00070471A6822EA0102F9E700BF007400401B
:104B000082B000230193054B0193019B08330344BA
:104B10000193019B196002B0704700BF0074004010
:104B200082B000230193054B0193019B143303448E
:104B30000193019B196002B0704700BF00740040F0
:104B40000828044B0CBF42EA012242EA0142C2504B
:104B5000704700BF2074004082B000230193064BD1
:104B60000193019B2C3303EB90030193019B186885
:104B700080B202B0704700BF007400404FF4805311
:104B800003FA00F0044B1A6811B102431A6070472F
:104B900022EA0002FAE700BF00740040FFF7A2BF5C
:104BA000034B5B6B8140194214BF0120002070470A
:104BB00000740040014B814059637047007400400D
:104BC000054B81401A68586B084003D00A4214BF55
:104BD00001200020704700BF00740040014B81405D
:104BE0005963704700740040014B1868000C70470F
:104BF000002004E0024B1868C0F30B00704700BFB0
:104C0000002004E0044B5A6811B102435A60704717
:104C100022EA0002FAE700BF002004E0044B9A6891
:104C200011B102439A60704722EA0002FAE700BF1E
:104C3000002004E0044BDA6811B10243DA607047E7
:104C400022EA0002FAE700BF002004E0054B002240
:104C50001F211A60DA6059619A61DA611A625A6238
:104C6000704700BF000005500E490B6823F48043D5
:104C700023F0010310B544880B6003880A682343BE
:104C800084882343C4882343048923434489808937
:104C9000234322F47F62034322F002029BB21343B8
:104CA0000B6010BD0000055000230380438083800B
:104CB000C380038143818381704702884388818850
:104CC00043EA0243034A1362C38843EA014353623F
:104CD000704700BF00000550044B1A6818B142F03D
:104CE00004021A60704722F00402FAE7000005503F
:104CF000014B02689A61704700000550044B1A6826
:104D000018B142F008021A60704722F00802FAE770
:104D100000000550044B1A6818B142F480421A6032
:104D2000704722F48042FAE700000550044B1A68ED
:104D300018B142F001021A60704722F00102FAE74E
:104D400000000550014B986A704700BF00000550F5
:104D5000044BDA6811B11043D8607047C04380B289
:104D60001040F9E700000550020B064B05D19B6887
:104D7000184214BF012000207047022A0CBF5B6854
:104D80001B69F5E700000550014B5861704700BFF3
:104D900000000550034B1B69184214BF012000207E
:104DA000704700BF00000550014B5861704700BFBD
:104DB00000000550036823F0010303600023036033
:104DC00043608360C3600361212343612A4B98429F
:104DD00003D13D2243F8082C7047284B984204D158
:104DE0004FF4746243F8202C7047254B984204D14D
:104DF0004FF4741243F8382C7047224B984204D178
:104E00004FF0746243F8502C70471F4B984203D107
:104E10001E4A43F8642C70471D4B984203D11D4A2B
:104E200043F87C2C70471C4B984203D11B4A43F833
:104E3000942C70471A4B984204D14FF03D5243F8DE
:104E4000AC2C17E0174B9842C3D0174B9842C7D0F1
:104E5000164B9842CCD0164B9842D1D0154B984265
:104E6000D6D0154B9842DAD0144B9842DED0144B72
:104E70009842E2D0704700BF1060024028600240B4
:104E80004060024058600240706002403D000020D7
:104E900088600240400F0020A060024000003D20DA
:104EA000B86002401064024028640240406402403E
:104EB000586402407064024088640240A06402406A
:104EC000B86402400368134A10B51A40CC680B68F6
:104ED00023434C6923438C692343CC6923430C6AE5
:104EE00023434C6A23438C6A23434C6B23438C6BD0
:104EF000234313430360D1E90B344269234322F077
:104F00000702134343610B6943604B6883608B68FE
:104F1000C36010BD3F801CF00023C0E90033C0E92E
:104F20000233C0E90433C0E90633C0E90833C0E9FD
:104F30000A33C0E90C3383637047036819B143F047
:104F400001030360704723F00103FAE7036819B116
:104F500043F400430360704723F40043FAE7036817
:104F600019B143F020030360704723F02003FAE7F0
:104F700041607047406880B27047036822B143F4D3
:104F8000002303600161704723F40023F9E70368FD
:104F900019B143F480230360704723F48023FAE7B8
:104FA0000AB101617047C16070470068C0F3C0403A
:104FB0007047006800F001007047406900F0380059
:104FC00070470A4A0A4B10B50A4CA04298BF1346D4
:104FD0008A004CBF58681868084020F0F02020F084
:104FE0008210003818BF012010BD00BF00600240D1
:104FF000006402400F64024010B5074A074C084B9A
:10500000A04298BF134621F0F02222F082128900BC
:105010004CBFDA609A6010BD006002400F6402402D
:10502000006402400B0612D5436952B143F080037D
:105030008029436115D0036801F01E011943016006
:10504000704723F080038029436104D17047802991
:1050500007D0002AEFD1036801F01E0123EA010303
:1050600003607047114B124A10B5124CA04288BF22
:105070001A4621F0F02323F0C31393B1036803EA27
:10508000D12303F01E0388004CBF5068106808400D
:1050900020F0F02020F0821010B1181E18BF01205F
:1050A00010BD436903F08003EDE700BF00640240D8
:1050B000006002400F640240FFF79EBF044B0022D5
:1050C0001A605A609A60DA60024A5A61704700BFFB
:1050D000003C0140FFFF7F000279837930B505680D
:1050E00002F1804202F59E32E94323B3144B1C685F
:1050F0000C401C605C6821405960116829431160B4
:105100009968026821EA02019960D96821EA0201DE
:10511000D9604179102906D1996811439960D968FD
:105120000A43DA6030BD01F1804303F59E3319680C
:105130000A431A60F6E713680B401360F2E700BFFA
:10514000003C014000234FF4406203608280837181
:105150007047024A1369034313617047003C0140E2
:10516000034B5B69034214BF01200020704700BF5E
:10517000003C0140014B5861704700BF003C0140BA
:10518000054B024619685869104003D0114214BFFC
:1051900001200020704700BF003C0140014B5861D6
:1051A000704700BF003C0140014BC0B2187070470F
:1051B000003C0240044B1A6818B142F480721A6035
:1051C000704722F48072FAE7003C0240044B1A68F0
:1051D00018B142F400721A60704722F40072FAE7C4
:1051E000003C0240044B1A6818B142F480621A6015
:1051F000704722F48062FAE7003C0240024A1368DA
:1052000043F4006313607047003C0240024A136895
:1052100043F4805313607047003C0240044B1A690A
:10522000002ABFBF034A5A6002F188325A607047B1
:10523000003C024023016745024A136943F00043E2
:1052400013617047003C0240044B5A69D20741BFCA
:10525000034A9A6002F144329A607047003C02406F
:105260003B2A1908024A536943F00103536170470E
:10527000003C0240044B1A7D02F0F3021A751A7DBD
:1052800002431A75704700BF003C0240024B586948
:10529000C0F34710704700BF003C0240014BD88A62
:1052A00080B27047003C0240014B588B80B270477F
:1052B000003C0240024B587DAA3818BF01207047BD
:1052C000003C0240024B187D00F00C00704700BF0C
:1052D000003C0240044B1A6911B102431A61704745
:1052E00022EA0002FAE700BF003C0240034BDB6801
:1052F000034214BF01200020704700BF003C024061
:10530000014BD860704700BF003C02400B4BDA688D
:10531000D1030DD4DA68D2060CD4DA6812F0EF0F9C
:105320000AD1DB6813F0020F0CBF0820072070477A
:10533000012070470520704706207047003C02405E
:1053400007B508238DF80730FFF7E0FF8DF8070059
:105350009DF80730012BF7D09DF8070003B05DF8EA
:1053600004FB70B5022994BF0D024FF44075064648
:10537000FFF7E6FF08281ED10F4C236923F4407382
:10538000236123692B432361236923F0F8032361FD
:105390002069304340F002002061236943F48033E8
:1053A0002361FFF7CDFF236923F002032361236903
:1053B00023F0F803236170BD003C0240FFF7C0BF3B
:1053C000F8B5054616461F46FFF7BAFF082814D160
:1053D0000A4C236923F440732361236943F4407327
:1053E0002361236943F001032361C5E90067FFF7E7
:1053F000A7FF236923F001032361F8BD003C0240AD
:1054000070B505460E46FFF79BFF082813D10A4CDE
:10541000236923F440732361236943F400732361F8
:10542000236943F0010323612E60FFF789FF23699D
:1054300023F00103236170BD003C024070B50546B6
:105440000E46FFF77DFF082813D10A4C236923F489
:1054500040732361236943F480732361236943F01C
:10546000010323612E80FFF76BFF236923F0010303
:10547000236170BD003C024070B505460E46FFF743
:105480005FFF082811D1094C236923F4407323617D
:1054900023692361236943F0010323612E70FFF721
:1054A0004FFF236923F00103236170BD003C0240DC
:1054B00038B504460D46FFF743FF082807D1054AD3
:1054C000D38AA0B29BB21DB123EA0003D38238BDB8
:1054D0000343FBE7003C024038B504460D46FFF7A6
:1054E0002FFF082807D1054A538BA0B29BB21DB1EC
:1054F00023EA0003538338BD0343FBE7003C02402B
:1055000010B50446FFF71CFF082804BF014B5C756B
:1055100010BD00BF003C024070B506460C46154663
:10552000FFF70EFF082807D1044A137D03F00F038D
:105530001E4335432C43147570BD00BF003C024030
:10554000034A137D43F002031375FFF7F9BE00BF52
:10555000003C02404FF0204358B943F2DB021A608E
:10556000800000F120406FF070434360C0F80431C8
:10557000704743F2D20243F82020F1E78168436884
:10558000C26A30B5C4680B432343046923434469AA
:10559000234384692343C4692343046A2343446A3D
:1055A0002343846A2343046B134323430468A40006
:1055B00004F120440829236008BF2368416B08BF19
:1055C00043F040038D6908BF23600B682B434D688F
:1055D00043EA05138D6843EA0523CD6843EA054392
:1055E0000D69496943EA055343EA0163B2F5804F07
:1055F000636012D1826B916913680B43516843EA6F
:105600000113916843EA01231169526943EA015386
:1056100043EA0263C4F8043130BD6FF07043F9E728
:105620000023022210B5C0E900324FF480514FF43C
:105630000052C0E90912416B03620F22FF24C0E946
:105640000233C0E90433C0E90633C0E90B33C1E9D2
:105650000022C1E90242C1E904228B61816BC1E9E8
:105660000022C1E90242C1E904228B6110BD4FF062
:10567000204331B153F8202042F0010243F82020AA
:10568000704753F82010014A0A40F7E7FEFF0F0069
:1056900010284FF020434FF018014FF0400206D180
:1056A00019665A664FF0FC329A66DA667047C3F89C
:1056B0008010C3F884204FF0FC32C3F88820C3F870
:1056C0008C207047D0E901321343826943EA4233A8
:1056D000C268134302691343426943EA4223C26921
:1056E00030B5D2E90141090441EA04211468D268C5
:1056F0002143046A006841EA0261D4E901521204BC
:1057000042EA05222568E468102842EA05024FF0C3
:10571000204043F0080342EA04620BBF0366C0F86E
:1057200080308166C0F888100CBFC266C0F88C203B
:1057300030BD00231022C0E90023C2698361C0E9A3
:105740000233C0E90433FC23C2E90033C2E9023367
:10575000026AC2E90033C2E9023370474FF02043C6
:1057600069B1102804D11A6E42F004021A6670471B
:10577000D3F8802042F00402C3F88020704710283C
:10578000044902D11A6E0A40F0E7D3F880200A409B
:10579000F2E700BFFBFF0F004FF0204369B1102874
:1057A00004D11A6E42F040021A667047D3F8802086
:1057B00042F04002C3F8802070471028044902D10B
:1057C0001A6E0A40F0E7D3F880200A40F2E700BFE3
:1057D000BFFF0F004FF0204310280CBF586FD3F8C5
:1057E000940070474FF020431822C3F8A0200022F5
:1057F000C3F8A4204FF0FC32C3F8A820C3F8AC20B3
:10580000C3F8B0207047D0E901235B0343EA422389
:105810000268C16813434FF0204243F0100310B5F3
:10582000C2F8A030D1E901431B0443EA04230C6809
:10583000C968234343EA01630169C2F8A830D1E98A
:1058400001431B0443EA04230C68C968234343EA69
:1058500001634169C2F8AC30D1E901031B0443EA9A
:1058600000230868C968034343EA0163C2F8B03003
:1058700010BDC2680023C0E900338360FC23C2E985
:105880000033C2E902330269C2E90033C2E90233DC
:105890004269C2E90033C2E9023370474FF0204346
:1058A00030B1D3F8A02042F00402C3F8A020704722
:1058B000D3F8A010014A0A40F7E700BFFBFF0F0032
:1058C0004FF02043A2B1102803D15A6E0A435A6602
:1058D0007047B0F5807F05D1D3F884200A43C3F820
:1058E00084207047D3F8A4200A43C3F8A42070474B
:1058F00010286FEA010102D15A6E0A40E7E7B0F5BD
:10590000807F03D1D3F884200A40E8E7D3F8A420AD
:105910000A40EAE710284FF0204305D15B6E0B42A6
:1059200014BF012000207047B0F5807F0CBFD3F872
:105930008430D3F8A430F2E710286FEA01014FF069
:10594000204303D15A6E0A405A667047B0F5807FF3
:105950000BBFD3F88420D3F8A4200A400A400CBF20
:10596000C3F88420C3F8A420704710284FF02043C8
:1059700009D15B6E13EA010004D013EAD10314BF0E
:10598000012000207047B0F5807F0CBFD3F8843031
:10599000D3F8A430EEE710286FEAD1014FF020438E
:1059A00003D15A6E0A405A667047B0F5807F0BBF2C
:1059B000D3F88420D3F8A4200A400A400CBFC3F8CF
:1059C0008420C3F8A420704708B5304B984209D111
:1059D0000121084600F0D8FF00210120BDE8084061
:1059E00000F0D2BF2A4B984206D10121022000F0DC
:1059F000CBFF00210220F1E7264B984206D101217E
:105A0000042000F0C1FF00210420E7E7224B984268
:105A100006D10121082000F0B7FF00210820DDE7B2
:105A20001E4B984206D10121102000F0ADFF00214D
:105A30001020D3E71A4B984206D10121202000F014
:105A4000A3FF00212020C9E7164B984206D101216F
:105A5000402000F099FF00214020BFE7124B984200
:105A600006D10121802000F08FFF00218020B5E7C2
:105A70000E4B984208D101214FF4807000F084FF52
:105A800000214FF48070A9E708BD00BF000002406C
:105A90000004024000080240000C024000100240D6
:105AA0000014024000180240001C02400020024086
:105AB0002DE9F0410022012603250B6806FA02F7C2
:105AC00037EA030334D10368540005FA04FE23EADD
:105AD0000E0303600B79D0F800806FEA0E0C03FA16
:105AE00004FE013B4EEA080E012BC0F800E014D87A
:105AF00083680CEA030383604B79D0F808C0A340A5
:105B000043EA0C038360436823EA070343608B790D
